:020000040800F2
:10000000801C002021020008C72F0008F12C0008E6
:10001000C52F00088904000875360008000000009C
:10002000000000000000000000000000890100083E
:10003000F10B000800000000CD0100085533000856
:100040003B0200083B0200083B0200083B0200089C
:100050003B0200083B0200083B0200083B0200088C
:100060003B0200083B0200083B0200083B0200087C
:100070003B0200083B0200083B0200083B0200086C
:100080003B0200083B0200083B0200083B0200085C
:10009000693600083B0200083B0200083B020008EA
:1000A0003B0200083B0200083B0200083B0200083C
:1000B0003B0200083B0200083B0200083B0200082C
:1000C0003B0200083B0200083B020008AD3100087B
:1000D0003B0200083B0200083B0200083B0200080C
:1000E0003B0200083B0200083B02000800F002F857
:1000F00000F03AF80AA090E8000C82448344AAF188
:100100000107DA4501D100F02FF8AFF2090EBAE885
:100110000F0013F0010F18BFFB1A43F0010318473B
:10012000C44C0000E44C0000103A24BF78C878C1E9
:10013000FAD8520724BF30C830C144BF04680C60ED
:10014000704700000023002400250026103A28BF35
:1001500078C1FBD8520728BF30C148BF0B60704739
:100160001FB51FBD10B510BD00F0E9F81146FFF72F
:10017000F7FF03F0F1FA00F007F903B4FFF7F2FF1D
:1001800003BC00F00FF90000224B19680868B0E8C2
:10019000F00F80F30988BFF36F8F4FF0000080F3FA
:1001A00011884EF00D0E70470000000006480068F0
:1001B000006880F3088862B661B6BFF34F8FBFF363
:1001C0006F8F00DF00BF00BF08ED00E0EFF3098094
:1001D000BFF36F8F0F4B1A6820E9F00F106008B55E
:1001E0004FF0500080F31188BFF34F8FBFF36F8F34
:1001F00003F0AAFE4FF0000080F31188BDE808402C
:1002000019680868B0E8F00F80F30988BFF36F8FB2
:10021000704700BF3C000020EFF3058070470000EE
:100220000948804709480047FEE7FEE7FEE7FEE78A
:10023000FEE7FEE7FEE7FEE7FEE7FEE704480549C6
:10024000054A064B70470000E3330008ED00000844
:1002500080160020801C00208018002080180020BC
:10026000B2F120030AD5C2F1200320FA02F001FA0C
:1002700003F321FA02F140EA0300704721FA03F088
:100280004FF00001704710B5203AC0F00B80B1E884
:100290001850203AA0E81850B1E81850A0E81850BB
:1002A000BFF4F5AF5FEA027C24BFB1E81850A0E8C4
:1002B000185044BF18C918C0BDE810405FEA827CDE
:1002C00024BF51F8043B40F8043B08BF7047D207F5
:1002D00028BF31F8023B48BF11F8012B28BF20F896
:1002E000023B48BF00F8012B70474FF0000200B5F9
:1002F000134694469646203922BFA0E80C50A0E849
:100300000C50B1F12001BFF4F7AF090728BFA0E8F6
:100310000C5048BF0CC05DF804EB890028BF40F8C2
:10032000042B08BF704748BF20F8022B11F0804F04
:1003300018BF00F8012B704770477047704775462B
:1003400000F02CF8AE4605006946534620F0070041
:10035000854618B020B5FFF771FFBDE820404FF08B
:1003600000064FF000074FF000084FF0000B21F09F
:100370000701AC46ACE8C009ACE8C009ACE8C0096C
:10038000ACE8C0098D46704710B50446AFF3008055
:100390002046BDE81040FFF7F0BE0000004870475F
:1003A0002016002001491820ABBEFEE726000200FF
:1003B0007047000070B5044600688168C943C907EA
:1003C00017D1816821F00101816001F08BFC0546A5
:1003D0000AE000BF01F086FC401B022804D9206817
:1003E0008068C043C00706D020688068C043C0074B
:1003F000F0D0002070BDA06A40F01000A062E06A5A
:1004000040F00100E062012070BD0000F8B5002658
:100410000446009600688168C943C9072DD08168E9
:1004200041F001018160164816490068B0FBF1F007
:1004300000E0401E00900028FBD101F053FC05466F
:1004400016E000BF01F04EFC401B022810D92068C6
:100450008068C043C0070BD0A06A40F01000A062C3
:10046000E06A40F00100E06284F824600120F8BDF9
:1004700020688068C043C007E4D10020F8BD0000B8
:100480001800002040420F00FEE7000038B5114878
:1004900000224FF40171826001600821C0E903214C
:1004A0000D4B0E48196901700C0A44700C0C8470D5
:1004B000090EC17019890171090A417193F861101F
:1004C0008171C27102466B460249054800F07EFE0A
:1004D00038BD000008160020A4040020AD00002054
:1004E0006C0300202DE9F043524C00254FF4804767
:1004F00004EB45063A46B6F8C411708E00F032FBA4
:100500006D1C7086C92DF3D3B4F8C011608E3E46C1
:100510003A4600F062FB01254FF00008002803D0A6
:1005200005DD84F8565304E06570BDE8F08384F877
:1005300056834FF001034FF0020700BF04EB430066
:100540003246018E408E00F048FB002801DB014658
:1005500000E04142792901DD677010E0002801DBED
:10056000014600E041422829F6DB002806D000BF02
:1005700094F8560301DD08B103E010B165706360C3
:10058000D3E703F10103C82BD8D3002510F0FF0FE8
:100590004FF0030643F6FF792B4624D0C821581CA0
:1005A00000F015FB04EB4000C821478E184600F010
:1005B0000EFB04EB4000408E87420DD51846C82143
:1005C0006D1CC4F8583300F002FB04EB4000418E70
:1005D000A9EB0100C4F85C035B1CC82BDED3012D22
:1005E00024D06670A1E7C821581C00F0F0FA04EB93
:1005F0004000C821478E184600F0E9FA04EB40009D
:10060000408E381A00280DDDC821581C6D1CC4F816
:10061000583300F0DCFA04EB4000418EA9EB0100F6
:10062000C4F85C035B1CC82BDDD3D8E784F80180D9
:100630007BE700006C050020064800210170417036
:1006400041600172C160C0F85813C0F85C13C0F873
:10065000601370476C0500202DE9F05F534C544A3D
:10066000204600F11203018A94F808C000EB410112
:10067000C06800251288471C461E4FF448494FF4B5
:10068000C83A4FF4804BBCF1070F13D2DFE80CF0EF
:100690000414214955608700217800290AD040F2CE
:1006A000DC5102F091FCC4F80C90258201202072EC
:1006B00065706560BDE8F09F801C40F2DC51E06031
:1006C00002F082FCE0685045F4D10220C4F80C909E
:1006D0000DE010F0FF0F0CD0C4F80C7040F2DC51AC
:1006E000E06802F071FCE0685045E3D90320207215
:1006F000E0E74A82208A401C80B220821028EDD197
:100700005A461021184600F03FFAE168A1F5484129
:10071000090A04EB410148862582E068401CE0603C
:10072000DCE7384640F2DC51E76002F04DFCE0685F
:10073000B0F5D23FBED10420D9E7304640F2DC51BB
:10074000E66002F041FCE0685045B3D10520CEE7F9
:1007500010F0FF0F0AD0E66040F2DC51E06802F0D2
:1007600033FCE0684845A5D20620C0E74A82208ACB
:10077000401C80B220821028EED15A461021184623
:1007800000F002FAE168A1F54841090A04EB4101D1
:10079000A1F8C4012582E068401EE060DCE7BDE806
:1007A000F05F0021084602F00FBC00006C0500203D
:1007B0002A0000202DE9F84F964C207A06287DD19A
:1007C00002F054FCFFF78EFE60784FF0000800281E
:1007D00075D19148C4F8608302F06EFD8E4802F036
:1007E00063FD94F85603D4F858534FF480494FF4FE
:1007F000484B00286DD172E0C821284600F0E7F987
:1008000004EB4000C821438E681C00F0E0F904EBC3
:1008100040004A46408E194600F0DFF90646D4F8FB
:100820005803A8421AD1D4F85C7314E0380290FB44
:10083000F6F000EB0520594600F0C9F9ADF80000CC
:1008400001226946744802F063FDD4F86003401C3D
:100850007F1CC4F86003B742E8DB39E0C830A84227
:100860004FF0000715D031E0380290FBF6F000EBB6
:100870000520594600F0ABF9ADF8000001226946A9
:10088000654802F045FDD4F86003401C7F1CC4F8A5
:100890006003D4F85C03B842E6DC19E0380290FB50
:1008A000F6F000EB0520594600F091F9ADF8000094
:1008B00001226946584802F02BFD01E0A3E094E0D4
:1008C000D4F86003401C7F1CC4F86003B742E5DB2A
:1008D0006D1CD4F85803C930A8428DDC79E0C835C6
:1008E00072E0C821681C00F072F904EB4000C821D6
:1008F000438E284600F06BF904EB40004A46408ED8
:10090000194600F06AF90646D4F8580300F1C80108
:10091000A9421DD1280200F5807AD4F85C7314E056
:10092000380290FBF6F1AAEB0100594600F04FF9AE
:10093000ADF8000001226946374802F0E9FCD4F81E
:100940006003401C7F1CC4F86003B742E8DB3AE058
:10095000A8424FEA052000F580704FF0000782465C
:1009600015D02EE0380290FBF6F1AAEB01005946B3
:1009700000F02DF9ADF8000001226946264802F08A
:10098000C7FCD4F86003401C7F1CC4F86003D4F893
:100990005C03B842E6DC16E0380290FBF6F1AAEB05
:1009A0000100594600F013F9ADF800000122694634
:1009B000194802F0ADFCD4F86003401C7F1CC4F859
:1009C0006003B742E8DB6D1ED4F85803401EA8420E
:1009D00087DB114802F09AFCD4F86003484502D046
:1009E0000420607001E0607878B10C490A4881F811
:1009F000048002F061FC0A49012081F8580084F863
:100A0000088084F80080BDE8F88F0449012008714F
:100A1000F1E700006C0500209C0000202A00002067
:100A2000A4040020104A00B5107818B94FF4C8701B
:100A300000F034F8507810B9C82000F023F890780E
:100A400018B940F28A2000F035F8D07810B9C820E3
:100A500000F00CF8002050619061D061106250628B
:100A60009062D062106300BD380500200449B0F5E3
:100A7000806F02D80861012000E00020C870704734
:100A8000380500200449B0F5806F02D88860012045
:100A900000E0002048707047380500200449B0F598
:100AA000806F02D84860012000E000200870704785
:100AB000380500200449B0F5806F02D8C8600120D5
:100AC00000E0002088707047380500200D4A00B50E
:100AD000107810B9052000F02FF8507810B91E20BA
:100AE00000F01EF8907810B9002000F00DF80020FA
:100AF000106150619061D061106250629062D0626A
:100B000000BD0000080500200449B0F5806F02D840
:100B1000C860012000E000208870704708050020B0
:100B20000449B0F5806F02D88860012000E0002001
:100B300048707047080500200449B0F5806F02D85E
:100B40004860012000E00020087070470805002080
:100B50008208034803681A6400688908C163704703
:100B6000EC030020431A08444FEA600000D55B42C2
:100B7000B3EB620F04DDB0EB620F02DBA0EB6200AF
:100B8000704700EB62007047F0B5078801253C46CE
:100B9000C2F1000E10E000BF30F81530A3EB070CD7
:100BA0001E46BCEB620F00DDB31ABCEB6E0F00DA21
:100BB000B3186D1C1C44ADB28D42EDD394FBF1F023
:100BC000002800DA1044904200DD801AF0BD08448D
:100BD000B0FBF1F201FB12007047401AB0EB620F5C
:100BE00000DD801A5142B0EB610F00DA104470470B
:100BF0007047FFF74BFC022002F0EAFDF9E772B6FE
:100C0000FEE7000006490020C8610648016941F07E
:100C100004010161016941F0400101617047000078
:100C20007804002000200240064A0021D1610649D4
:100C30000A6942F002020A614861086940F0400016
:100C4000086170477804002000200240044B002215
:100C5000DA61044A136943F00103136101807047AC
:100C6000780400200020024014480022C168CB060E
:100C7000134904D5CA6942F00202CA611022C3684E
:100C80005B0705D5CB6943F00103CB6142F0040259
:100C9000C369DB0707D0CB6943F00403CB61C169AB
:100CA00021F00101C161A2F58071013901D0C2605A
:100CB0007047C16921F00101C16170470020024005
:100CC0007804002070B5054601F00CF80646114C7A
:100CD00009E0681C07D025B101F004F8801BA84288
:100CE00001D9032070BDE068C007F2D1E06880063A
:100CF00001D52020E060E068C00605D4E069C007A7
:100D000002D1E068400703D5FFF7AEFF012070BDB8
:100D1000002070BD00200240F8B50024009490F837
:100D200024202546012A12D0012280F824204A6876
:100D30001F23072A0DD20668776B521E02EB820230
:100D400093409F430B6893401F43776319E0022051
:100D5000F8BD06680D2A0AD2376BD21F02EB820259
:100D600093409F430B6893401F43376309E0F76A42
:100D70000D3A02EB820293409F430B6893401F435E
:100D8000F7620A68072306680A2A0AD3F7680A3A4C
:100D900002EB420293409F438B6893401F43F760EE
:100DA00008E0376902EB420293409F438B6893400F
:100DB0001F4337610A68102A01D0112A20D1124B33
:100DC00002689A4217D193681B0219D4936843F4BE
:100DD000000393600968102912D10C490C4A096874
:100DE000B1FBF2F101EB8101490000E0491E0091E5
:100DF0000029FBD104E0816A41F0200181620124D5
:100E000080F824502046F8BD00240140180000203E
:100E100040420F000068C06C704700002DE9F041AF
:100E20004FF0000704003D467ED0A06A002628B996
:100E3000E66284F82460204600F07EF82046FFF742
:100E4000B9FAA16AC90600D420B1A06A40F0100026
:100E5000A06269E0A16A21F4885141F00201A16217
:100E60006268E169237B0A4347EA43010A43A168B8
:100E70004FF48077B94209D0012907D05FF0000113
:100E800094F814C0BCF1010F02D00AE03946F7E72C
:100E9000F3B1A36A43F02003A362E36A43F00103C2
:100EA000E3622368D3F804C02CF4694C4CEA010CCB
:100EB000C3F804C021688B68DFF870C003EA0C0334
:100EC00013438B60A168B9420BD0012909D00CE013
:100ED000DFF85CC0A3690CEB43330B4343F40061C0
:100EE000DFE7218A0D05A5F580152168CB6A23F47B
:100EF00070032B43CB62216889680E4B19409142E5
:100F000008D1E662A16A21F0020141F00101A1626B
:100F1000BDE8F081A06A20F0020040F01000A0625D
:100F2000E06A40F00100E0620120F1E7FDF7E1FF37
:100F300000E0FFFFFE0E1FFF00B585B0002100910D
:100F4000019102910391154A01681548914209D116
:100F5000816941F400718161806900F4007004903E
:100F600005B000BD0F4A9142FAD1816941F4806118
:100F70008161816901F480610491816941F004011A
:100F800081618069694600F00400049001200090AE
:100F900003200190044800F0AFFDE1E70024014088
:100FA0000010024000280140000801402DE9F843EC
:100FB00000270D460446009700F094FE8046206806
:100FC0008168C90508D5A06A40F02000A06284F8B5
:100FD00024700120BDE8F8834168C90503D4C06AC4
:100FE00010F4700F2AD0022000F020FF3B4909685E
:100FF000B1FBF0F62068036939490B424FEA610101
:101000004FEAA1121FD1C3684FEA611C13EA0C0F0B
:1010100019D103690B4225D1C068104222D1142096
:1010200023E0681C0AD02DB100F05CFEA0EB0800A4
:10103000A84203D920680068800725D52068006889
:101040008007EED52DE003690B4202D1C168114241
:1010500006D0026923490A4206D1C068084203D17A
:10106000542002E0292000E0FC204643009816E0CE
:10107000681C11D02DB100F035FEA0EB0800A8428D
:101080000AD90098B04207D2A06A40F00400A062DA
:1010900084F8247003209DE70098401C0090B04223
:1010A000E6D321686FF012000860A06A40F4007077
:1010B000A06220688068C0F3424007280CD1207BE2
:1010C00050B9A06A20F48070A062A06AC00403D462
:1010D000A06A40F00100A06200207BE71800002019
:1010E000244992244992240070B5044690F82400C3
:1010F00001280DD0012084F824002046FFF786F94E
:1011000002004FF0000005D084F82400104670BDA6
:10111000022070BDA16A40F20123994341F480711D
:10112000A1621F4D23681F49AB4218D10E6816F407
:10113000702F14D0A66A46F48016A6620E68760553
:1011400005D5A66A26F4005646F48056A662A66A1D
:10115000F6040AD5E66A26F00606E66206E0A66A06
:1011600026F48016A6625E68E9E7E06284F824004F
:101170006FF00200186020688368C3F34243072BB6
:1011800005D1A84208D1096811F4702F04D08168F4
:1011900041F480118160B9E7816841F4A001F9E769
:1011A000002801400424014090F82020012A07D0A3
:1011B000022A05D0416A41F4802141620120704732
:1011C000006842690A43426100207047F0B590F818
:1011D00020500468A468012D05D0022D03D0416A77
:1011E00041F480215DE014F0406F01D1E50055D558
:1011F000C4F30164022C03D9416A41F4000150E0B8
:101200000125A5401D608D684FF4C0739DB1CE6867
:1012100035434E6845EAC605066803EB0417F551E9
:101220004FF4C275076805EB04150E697E51097D00
:10123000012905D009E00E88CD6845EA4655EBE75F
:1012400001684E5946F480764E511179D579567918
:1012500041EA056195792D0445EA062529434FF4B5
:10126000C676056806EB0416A9511178D57841EACF
:101270000561957852782D0445EA022211434FF416
:10128000C475026805EB04155151006803EB0411A5
:10129000425842F0010242500020F0BD416A41F440
:1012A000001141620120F0BD10B590F820300268B5
:1012B000012B07D0022B05D0416A41F48021416205
:1012C000012010BDD2F8000240F00100C2F8000277
:1012D000087D00F01F0301209840D2F81C328343A0
:1012E000C2F81C32CB69B3B9D2F80C328343C2F8CE
:1012F0000C328C894B6864F31F434C6902EBC404C5
:10130000C4F840320C890B6864F31F434C6902EB4C
:10131000C404C4F84432CB69012B16D1D2F80C3284
:101320000343C2F80C320C884B6864F31F434C69CA
:1013300002EBC404C4F840320C89CB6864F31F4349
:101340004C6902EBC404C4F844328B69002BD2F818
:1013500004320FD053EA0003C2F804320B69002BA9
:10136000D2F8143208D00343C2F81432096A0129B2
:1013700004D008E08343EFE78343F5E7D2F81C127B
:101380000143C2F81C12D2F8000220F00100C2F89A
:101390000002002010BD704730B590F82040012CAD
:1013A00005D0022C03D0416A41F480215DE004683D
:1013B000002955D02469A40754D04FF4D874056887
:1013C00004EB01142D5915F00405956005682D599D
:1013D0004ED0ED08556005682C5904F00204D46025
:1013E0004FF4DA74056804EB01142D5905F00F056C
:1013F000156105682D59C5F30725956105682C59B8
:10140000240C54614FF4DC72046802EB0112A458FE
:101410001C700468A458240A5C700468A458240C46
:101420009C700468A258120EDA704FF4DE720468E1
:1014300002EB0112A4581C710468A458240A5C71C0
:101440000468A458240C9C710468A258120EDA7126
:10145000006881B1016941F020010161002030BDC7
:10146000E468A8E7416A41F400114162012030BDFF
:101470006D0D1560AFE7C16841F02001C160EDE777
:101480002DE9F05F0546006800244669D0F8049015
:101490008768D0F80CB0D0F810A0D0F81880F10709
:1014A00048D0F90714D001218160B80703D5284638
:1014B00000F01DFA0CE0780702D54FF4006407E055
:1014C000380702D54FF4805402E0284600F00EFAA7
:1014D000F80516D529684FF480708860B80503D5E3
:1014E000284600F006FA0CE0780502D544F40054D2
:1014F00007E0380502D544F4804402E0284600F0B5
:10150000F7F9F80316D529684FF480308860B803DE
:1015100003D5284600F0EFF90CE0780302D544F437
:10152000004407E0380302D544F4803402E0284642
:1015300000F0E0F9300707D55FEACB6004D52968F1
:10154000102044F40074C86070074FF0080707D5F6
:101550005FEA0B7004D52868C760284600F066F97A
:10156000B00706D52868C068800702D0284600F07A
:101570005FF9700607D55FEACA6004D529681020B4
:1015800044F480640861B00607D55FEA0A7004D5A8
:1015900028680761284600F079F9F00606D5286822
:1015A0000069800702D0284600F071F9B00308D521
:1015B0005FEAC96005D5296810204860284600F018
:1015C00067F9F00307D55FEA097004D5286847601A
:1015D000284600F091F9300446D55FEA497040D5BD
:1015E000F00504D55FEAC87001D044F00104B005ED
:1015F00004D55FEA887001D544F00204700504D573
:101600005FEA487001D544F00404300529D518F08C
:10161000700F26D008F07000402815D006DC102886
:1016200009D020280AD0302816D10AE050280ED040
:10163000602811D10EE044F008040DE044F01004DD
:101640000AE044F0200407E044F0400404E044F0E1
:10165000800401E044F480742868816921F07001FD
:101660008161296804204860002C05D0686A204305
:1016700068622846FFF78FFEBDE8F09F70B5040052
:1016800003D094F8200010B104E0012070BD204682
:1016900000F082F82068016841F00101016000F06B
:1016A00021FB0546052604E000F01CFB401B0A2830
:1016B00011D820684068C007F6D02068016821F082
:1016C0000201016000F00EFB05460BE000F00AFB92
:1016D000401B0A2806D9606A40F40030606284F832
:1016E0002060D2E7206840688007EFD4207E012880
:1016F000206801683DD021F080010160607E0128F2
:101700002068016838D021F040010160A07E0128E6
:101710002068016833D021F020010160E07E0128BB
:10172000206801682ED041F010010160207F01285F
:101730002068016829D021F008010160607F01283C
:101740002068016824D021F004010160D4E902017D
:101750000843D4E90412114308436168491E084351
:101760002168C86100206062012084F82000002008
:1017700070BD41F08001C0E741F04001C5E741F094
:101780002001CAE721F01001CFE741F00801D4E7BA
:1017900041F00401D9E7000010B586B000210091A6
:1017A00001910291039100681C49884233D11C4881
:1017B000C16941F00071C161C16901F0007104911A
:1017C000816941F0080181618069164C00F00800D0
:1017D00004904FF4807000906946204600F08CF928
:1017E0006015009002200190032003906946204676
:1017F00000F082F90C48416821F4C04141F0E061F9
:1018000041F48041416000220521142000F0DCFAFF
:10181000142000F0CBFA06B010BD000000640040B8
:1018200000100240000C0140000001407047000021
:1018300000B589B007AB6A460021FFF7ADFD0098FF
:10184000B0F5007F19D10F48012101709DF81D10DE
:101850000D484A0713D5CA08026B01F0030104D0F2
:1018600001EBC10303EB011102E06FF018035943D0
:1018700002EB412101632021017109B000BD10215B
:10188000FAE70000AC000020A40400207047704775
:101890007047000070B5044690F82000012804D07D
:1018A000606A40F40020606218E0022084F82000A2
:1018B0002068016821F00101016000F013FA05467B
:1018C0000EE000BF00F00EFA401B0A2808D9606A3B
:1018D00040F400306062052084F82000012070BDD3
:1018E00020684068C007EDD1606270BD70477047E6
:1018F00070477047704770477047000010B590F808
:1019000021100024022903D00421816301243DE039
:1019100001680A6822F00E020A6001680A6822F073
:1019200001020A601A4A0168914201D1012121E0B5
:10193000174A1432914201D110211BE0144A283277
:10194000914201D1891515E0114A3C32914201D1F1
:1019500089140FE00E4A5032914202D14FF4803187
:1019600008E00B4A6432914202D14FF4801101E049
:101970004FF08071064A083A5160012180F8211029
:10198000002180F82010416B01B18847204610BD2E
:10199000080002402DE9F047054626480F4601267B
:1019A000017E01290FD00121814601762868DFF8E8
:1019B00088804CF25034022808D0A2462046FFF717
:1019C00081F9A8B131E00220BDE8F0872046FFF799
:1019D00079F908BB0120FFF715F92046FFF772F9E6
:1019E000D8F81010064621F00401C8F810101CE0C9
:1019F0004FF0FF303860AC6811E02046FFF714F973
:101A00005046FFF75FF9D8F81010060021F00201E8
:101A1000C8F8101001D03C6007E004F58064D5E9F7
:101A2000020100EB8120A042E7D8002189F81810BC
:101A30003046C9E7780400200020024003480169CD
:101A400041F0800101610020704700000020024049
:101A50002DE9F05F07461C4888460024017E1546A4
:101A60001E46012909D00121814601764CF2503AE7
:101A70005046FFF727F918B122E00220BDE8F09F99
:101A8000012F02D0022F00D00427D346DFF83CA05C
:101A9000220128463146FEF7E3FB81B208EB440001
:101AA000FFF7D4F85846FFF70DF9DAF8102022F0C6
:101AB0000102CAF8102018B9641CE4B2BC42E7D392
:101AC000002289F81820D9E778040020002002407D
:101AD000064900200A69120607D5054A4A60054AE8
:101AE0004A600969090600D50120704700200240BC
:101AF00023016745AB89EFCD2DE9F84FDFF8B891A9
:101B0000002409F1040A0AF1040B23460F270BF104
:101B1000040EC9E00125A5402A40AA427DD1674EA6
:101B2000D1F804C0ACEB0608B44532D014DCBCF1EB
:101B3000030F3AD009DCBCF1000F2AD0BCF1010F31
:101B40001CD0BCF1020F31D11DE0BCF1110F17D038
:101B5000BCF1120F2AD119E0B8F5881F19D006DCA4
:101B6000B8F5803F15D0B8F5801F1FD111E0B8F54A
:101B7000001F0ED0B8F5041F18D10AE0CB6815E09D
:101B8000CB681B1D12E0CB6808330FE0CB680C3329
:101B90000CE08B682BB1012B4FF0080303D045619B
:101BA00004E0042302E0056100E00023FF2A01D8DD
:101BB000064601E000F104064FEA840501D9A5F1CB
:101BC0002005D6F8008007FA05FC28EA0C0803FA7D
:101BD00005F548EA0508C6F800804D68ED0062D5B5
:101BE000374DAE6946F00106AE61AD6924F00306DB
:101BF00005F001050095334D06EB050CDCF80850A7
:101C0000A607360F07FA06F825EA0805DFF8B880B8
:101C1000404503D14FF0000817E044E0DFF8AC8006
:101C2000404502D14FF001080FE0DFF8A4804045A5
:101C300002D14FF0020808E0DFF89880404502D159
:101C40004FF0030801E04FF0040808FA06F848EAEC
:101C50000508CCF808804D68D9F80060ED034D46C2
:101C600001D5164300E096432E604D68DAF8006017
:101C7000AD03554601D5164300E096432E604D68EE
:101C8000DBF80060ED025D4601D5164300E09643A7
:101C90002E604D68DEF80060AD02754601D5164332
:101CA00000E096432E60641C0D682A46E5407FF4F0
:101CB00031AFBDE8F88F00000004014000001110B2
:101CC000001002400000014000080140000C0140EB
:101CD00000100140001401400AB10161704709047D
:101CE000FBE7000001488068704700000C000020FE
:101CF0000248816802781144816070470C0000201E
:101D0000074810B5016841F010010160032000F0A0
:101D10007BF80F2000F006F800F024F8002010BD3A
:101D20000020024070B50D4D04464FF47A712878BA
:101D3000B1FBF0F00A490968B1FBF0F000F0D5FD05
:101D400048B9102C07D200222146501E00F03CF862
:101D500000206C6070BD012070BD00000C000020F0
:101D6000180000200F4808B5816941F00101816128
:101D7000816901F001010091C16941F08051C161A7
:101D8000C069002200F0805000900F21901E00F0EA
:101D90001BF80548416821F0E06141F000714160A5
:101DA00008BD00000010024000000140002809DBCF
:101DB00000F01F02012191404009800000F1E02065
:101DC000C0F8001170470000F0B40E4B1B680C46C1
:101DD000C3F30223C3F10705042D00D90425191DFF
:101DE000072901D2002300E0DB1E012606FA05F1D7
:101DF000491E214099409E40761E16403143F0BC5A
:101E000001F039BC0CED00E0064900F0070208685B
:101E10004FF6FF03184040EA0220034A10430860CF
:101E2000704700000CED00E00000FA0510B528A492
:101E300001461DCC86B08DE81D0029A0294C006804
:101E400004900020012923D0022939D010291DD166
:101E500061682268D20119D5C1F38342C9031DF814
:101E6000020009D5616804AAC1F34041515C1E4AD1
:101E7000B2FBF1F1484301E01C4948436168490263
:101E800004D440005FF00301B0FBF1F006B010BDD8
:101E9000226AC2F30121012903D1920701D5C803A7
:101EA000F4E7022905D1626A920702D549F640405B
:101EB000ECE70329EAD121688903E7D50C48E5E777
:101EC00000F034F96168C1F38131491C4900DBE756
:101ED00002030405060708090A0B0C0D0E0F10106B
:101EE0000102000000100240001BB70000093D0085
:101EF000366E01002DE9F84305460078354CC007E1
:101F000054D0E0690026C00008D4E06940F0805059
:101F1000E061E069012600F0805000902E480168E1
:101F2000C90512D40168804641F480710160FFF751
:101F3000D9FE074605E000BFFFF7D4FEC01B6428AA
:101F400023D8D8F80000C005F6D5206A10F44070F8
:101F500021D0A98801F4407181421CD0206A1F4918
:101F6000012220F440700A6000220A602062C0074B
:101F700011D0FFF7B7FE074641F2883808E000BFEE
:101F8000FFF7B0FEC11B414502D90320BDE8F8832D
:101F9000206A8007F4D5206A696820F440700843FD
:101FA00020621EB1E06920F08050E061287880074F
:101FB00005D56068A96820F440400843606028782F
:101FC000C00605D56068E96820F4800008436060B9
:101FD0000020DBE700100240007000404004424255
:101FE0002DE9F0470F46050061D0434E306800F000
:101FF0000700B84209D2306820F00700384330604B
:10200000306800F00700B84251D128683B4C810786
:1020100012D5400703D5606840F4E060606028781E
:10202000000703D5606840F4605060606068A9688C
:1020300020F0F000084360602878C00728D0686866
:10204000012810D02168022810D0890700292EDA33
:10205000616821F0030101436160FFF743FE8046A0
:1020600041F288390DE021688903EFE78901EDE746
:10207000FFF738FEA0EB0801494502D90320BDE86F
:10208000F0876068696800F00C00B0EB810FEFD159
:10209000306800F00700B8420BD9306820F0070024
:1020A00038433060306800F00700B84201D00120AA
:1020B000E5E72878400705D56068E96820F4E06026
:1020C000084360602878000706D56068296920F415
:1020D000605040EAC100606000F038F86168084A6A
:1020E000C1F30311515CC840064908600648006806
:1020F000FFF718FE0020C2E7002002400010024057
:10210000A0450008180000201000002004480549E0
:1021100000684968044AC1F30221515CC840704715
:102120001800002000100240B0450008044805498E
:1021300000684968044AC1F3C221515CC840704735
:102140001800002000100240B045000813A185B01F
:102150000FC98DE80F0015A0154A0068049051685A
:1021600001F00C00042804D0082804D0114805B060
:1021700070471148FBE7C1F38343C9031DF803000F
:1021800009D5516804AAC1F34041515C0A4A504341
:10219000B0FBF1F0EBE709494843E8E70203040527
:1021A000060708090A0B0C0D0E0F101001020000A3
:1021B0000010024000127A00001BB70000093D0029
:1021C0002DE9F84F040070D02078C04DC00749D0E9
:1021D0006868C0F38100012807D06868C0F38100F7
:1021E000022809D16868C00306D52868800339D55C
:1021F00060680028E7D035E06068B0F5803F0BD01C
:1022000010B1B0F5A02F11D0286820F480302860DC
:10221000286820F4802002E0286840F4803028609C
:10222000606890B1FFF75EFD06460AE0286840F45A
:1022300080202860F0E700BFFFF754FD801B642872
:1022400073D828688003F7D50CE0FFF74BFD0646EE
:1022500005E000BFFFF746FD801B6428F0D8286822
:102260008003F7D420789A4E80074FF001094FF091
:10227000000839D5686810F00C0F07D06868C0F303
:102280008100022809D16868C00306D42868800745
:1022900014D52069012808D110E02069B0B1C6F832
:1022A0000090FFF71FFD074605E00AE1FFF71AFD62
:1022B000C01B0228C4D828688007F7D52868616940
:1022C00020F0F80040EAC10028600DE0C6F8008068
:1022D000FFF708FD074604E0FFF704FDC01B0228D6
:1022E00023D828688007F7D4207800072CD57948B0
:1022F000A169D9B1C0F80090FFF7F4FC074604E0EB
:10230000FFF7F0FCC01B02280FD8686A8007F7D5DA
:1023100071484FF4FA510068B0FBF1F0009000BF33
:102320000098411E0091FAD20EE080E0C0F80080D3
:10233000FFF7D8FC074604E0FFF7D4FCC01B0228D7
:1023400075D8686A8007F7D42078400760D5E869B7
:102350000027C00008D4E86940F08050E861E869CF
:10236000012700F0805000905C480168C90513D433
:102370000168834641F480710160FFF7B3FC824637
:1023800006E000BFFFF7AEFCA0EB0A0064284ED8C1
:10239000DBF80000C005F5D5E06801280AD008B1D7
:1023A000052813D0286A20F001002862286A20F04E
:1023B000040002E0286A40F001002862E06841F26F
:1023C000883B98B1FFF78EFC82460BE0286A40F00C
:1023D00004002862EEE700BFFFF784FCA0EB0A01CF
:1023E00059455AD8286A8007F6D50CE0FFF77AFCE1
:1023F000824605E0FFF776FCA0EB0A0159454CD870
:10240000286A8007F6D41FB1E86920F08050E8619F
:10241000E06988B36968C1F38101022944D00228C8
:10242000C6F8608004D0FFF75DFC044638E034E075
:10243000FFF758FC074604E0FFF754FCC01B0228D6
:102440002BD828688001F7D4206AB0F5803F05D1E9
:102450006868A16820F4003008436860D4E9080186
:102460000843696821F4741108436860C6F86090F5
:10247000FFF738FC044606E025E000BFFFF732FC1A
:10248000001B022809D828688001F7D51BE000BF8F
:10249000FFF728FC001B022802D90320BDE8F88FB3
:1024A00028688001F4D40EE00128F7D06868226A19
:1024B00000F48031914204D1616A00F470108842C6
:1024C00001D00120EAE70020E8E700000010024008
:1024D0000000424280044242180000200070004088
:1024E0007047000038B50446006842688168C943F7
:1024F0004B0606D5CB0704D1D3435B0601D4216C30
:1025000005E08B0708D4D3431B0605D4616C01B0EA
:102510002046BDE8304008478B0601D54B0646D41F
:10252000D3439B0643D44B060AD494F85130032B73
:102530003ED0636D43F004036365C3688368009312
:10254000890609D4616D41F00101616581680091DE
:10255000016821F040010160606D002827D02068EB
:10256000416821F0E0014160012084F851009007AA
:1025700022D02068416821F003014160104DE06CD9
:1025800040B14563E06CFFF7B9F918B1606D40F0F8
:1025900040006065A06C002809D04563A06CFFF77F
:1025A000ADF9002803D0606D40F04000606538BD93
:1025B000C1688068009038BD2046FFF791FF38BDA4
:1025C000B931000870B5040009D0606A002540B137
:1025D00025616561A56294F8510040B10CE00120CD
:1025E00070BD6068B0F5827FF4D0E561F2E784F8F1
:1025F0005050204600F040F8022084F85100206836
:10260000016821F040010160A088218900F48270F6
:1026100001F404410843A18901F400610843217CCD
:1026200001F002010843217D01F001010843218BE3
:1026300001F400710843217F01F03801084394F848
:10264000201001F080010843218D01F4005108435E
:1026500021680860A069042101EA104021684860EF
:102660002068C16921F40061C1616565012084F8B9
:102670005100002070BD000030B585B000240094EA
:1026800001940294039400681B49884232D11B488C
:10269000816941F480518161816901F48051049123
:1026A000816941F0080181618069154D00F00800E1
:1026B0000490282000900220019003200390694696
:1026C0002846FFF719FA1020CDE90004694628468C
:1026D0000294FFF711FA0B48416841F0E06141F0C4
:1026E00001014160002205212320FFF76DFB23201B
:1026F000FFF75CFB05B030BD003001400010024028
:10270000000C0140000001402DE9F84F044690F80C
:10271000500000270A9E1D4692468B464FF0010945
:1027200001280ED0012084F85000FFF7DBFA804624
:1027300094F85100616801280CD0B1F5827F07D16F
:1027400002E00220BDE8F88FA16809B9042801D091
:102750000227C2E0BBF1000F27D0BAF1000F24D04E
:102760001DB394F85100042802D0052084F85100CC
:1027700000206065C4F838A0E587A587C4F830B0AC
:10278000E586A5862064606420680168490603D454
:10279000016841F040010160E068B0F5006F6068D9
:1027A00005D0E8B3012D46D07FE0012795E008B1C0
:1027B000012D39D1206B21680088C860206B801CF6
:1027C0002063E08E401EE0862EE020688168890745
:1027D0000FD5E18E69B1B9F1010F0AD1216B0988DA
:1027E000C160206B801C2063E08E401EE0864FF0AD
:1027F000000920688168C9070CD0E18F51B1C06819
:10280000A16B0880A06B801CA063E08F401EE08756
:102810004FF00109FFF766FAA0EB0800B04200E0B4
:1028200009E001D3701C50D1E08E0028CDD1E08F9B
:102830000028CAD13FE0206B216800780873206B24
:10284000401C2063E08E401EE0862EE020688168F8
:1028500089070FD5E18E69B1B9F1010F0AD1216B5A
:1028600009780173206B401C2063E08E401EE086D7
:102870004FF0000920688168C9070CD0E18F51B181
:10288000C068A16B0870A06B401CA063E08F401E65
:10289000E0874FF00109FFF725FAA0EB0800B042EE
:1028A00002D3701C01D010E07EB1E08E0028CDD1A3
:1028B000E08F0028CAD142463146204600F084FC11
:1028C00028B101272020606507E0032705E0A06804
:1028D00018B92068C16880680090012084F8510010
:1028E000002084F8500038462CE710B5401EB0F1A7
:1028F000807F01D3012010BD4FF0E02460610F21E3
:10290000601700F0B8FE0020A061072020610020C1
:1029100010BD000070B590F83C20012A26D001249B
:1029200080F83C40022280F83D2003685A689D6888
:1029300022F070060A6832435A600D4B02689A42D0
:1029400008D0B2F1804F05D00A4B9A4202D00A4B10
:102950009A4204D1496825F080031943916080F8B8
:102960003D40002180F83C10084670BD022070BD3B
:10297000002C0140000400400008004090F83D1089
:10298000012901D001207047022180F83D10006824
:102990000B49884208D0B0F1804F05D009498842E0
:1029A00002D00949884204D1816801F00701062953
:1029B00003D0016841F00101016000207047000070
:1029C000002C0140000400400008004000B585B024
:1029D000002100910191029103910068B0F1804FB4
:1029E0001BD10F48816941F0080181618069694606
:1029F00000F0080004904FF4406000900220019025
:102A000003900848FFF778F80748416821F44071BF
:102A100041F0E06141F40071416005B000BD00008B
:102A200000100240000C01400000014070B5044657
:102A300090F83C000D4601280AD0012084F83C00A3
:102A400042B1042A18D0082A2AD00C2A4DD139E0E4
:102A5000022070BD206800F009FD2068816941F006
:102A6000080181612068816921F004018161206889
:102A700081692A69114311E0206800F01FFD206878
:102A8000816941F4006181612068816921F480617C
:102A90008161206881692A6941EA0221816124E01B
:102AA000206800F037FD2068C16941F00801C1616C
:102AB0002068C16921F00401C1612068C1692A69E7
:102AC000114311E0206800F051FD2068C16941F414
:102AD0000061C1612068C16921F48061C161206821
:102AE000C1692A6941EA0221C161002084F83C00E1
:102AF00070BD10B5040003D094F83D0010B107E09C
:102B0000012010BD002084F83C00204600F01EF893
:102B1000022084F83D00211D206800F063FC0120A4
:102B200084F8460084F83E0084F83F0084F84000B2
:102B300084F8410084F8420084F8430084F844009B
:102B400084F8450084F83D00002010BD08B50068F9
:102B5000B0F1804F08D10548C16941F00101C16160
:102B6000C06900F00100009008BD000000100240A4
:102B700010B50446022249B104290ED0082913D009
:102B800094F84100012816D0012010BD94F83E00B1
:102B90000128F9D184F83E200FE094F83F00012885
:102BA000F2D184F83F2008E094F840000128EBD1EE
:102BB00084F8402001E084F841200122206800F0E0
:102BC00047FC0F492068884203D1426C42F400421E
:102BD00042642068884208D0B0F1804F05D009498E
:102BE000884202D00849884204D1816801F0070177
:102BF000062903D0016841F001010160002010BDE9
:102C0000002C0140000400400008004070B50400A2
:102C100004D094F83D00002510B106E0012070BDFD
:102C200084F83C50204600F023F8242084F83D002E
:102C30002068C16821F40051C160204600F0B8FC52
:102C40002068016921F4904101612068416921F007
:102C50002A0141612068C16841F40051C1602564C6
:102C6000202084F83D0084F83E00002070BD000064
:102C700030B585B000240094019402940394006858
:102C8000174988422AD11748816941F480418161FE
:102C9000816901F480410491816941F008018161F9
:102CA0008069114D00F0080004904020009002203F
:102CB00001900320039069462846FEF71DFF8020FF
:102CC000CDE90004694628460294FEF715FF07483F
:102CD000416841F0E06141F00401416005B030BD60
:102CE0000038014000100240000C0140000001408B
:102CF000FEE700000122D1030148FEF7EDBF00000E
:102D00000008014000224FF400410148FEF7E4BFF3
:102D1000000801403EB5002411480094019402943B
:102D20000E498460016004730475012505614FF448
:102D300060214460C161FEF771F808B1FDF75FFFE3
:102D40001120CDE90005694602940548FDF7E4FF2E
:102D5000002801D0FDF753FF3EBD000000240140D4
:102D60000C0300203EB50024104800940194029406
:102D70000D498460016004730475012505614FF4F9
:102D800060214460C161FEF749F808B1FDF737FFE3
:102D9000CDE90045694605480294FDF7BDFF0028CE
:102DA00001D0FDF72CFF3EBD002801403C03002070
:102DB0000F4810B50D4901600321416000214FF417
:102DC00000228160C0E9031252004261017641761F
:102DD0008176C17601774177FEF750FC002803D059
:102DE000BDE81040FDF70BBF10BD000000640040BF
:102DF0006C03002010B596B01C2211496846FDF7FF
:102E000042FA0021684600F0F0FC0E4C0C491C22EE
:102E1000A0601C3107A8FDF736FA002107A800F0D2
:102E2000E4FC074920601C2238310EA8FDF72BFA7C
:102E300000210EA800F0D9FC606016B010BD0000A3
:102E40004C4500080000002030B585B000241B4828
:102E50000094019402940394816941F020018161FE
:102E6000816901F020010491816941F004018161CF
:102E7000816901F004010491816941F008018161D7
:102E800080690F4D00F00800049001223C21284683
:102E9000FEF722FF00224FF400412846FEF71CFFF8
:102EA00048F23C0000900120CDE90104032003908A
:102EB00069462846FEF720FE05B030BD00100240EE
:102EC00000080140114810B50F4901604FF48271AC
:102ED000416000214FF40062C0E902120222026147
:102EE00001224261520282612822C0E90721416227
:102EF00081620A21C162FFF765FB002803D0BDE8AB
:102F00001040FDF77CBE10BD00300140940300204E
:102F100010B58AB0002407941C2168460894FDF778
:102F2000E4F919484FF08041C0E9001440F2FF3144
:102F3000C0E9024104618461FFF7DBFD08B1FDF7E0
:102F40005EFE079407A910480894FFF7E3FC08B158
:102F5000FDF755FE6020CDE9000402940822694681
:102F600009480494FFF762FD08B1FDF748FE0C2202
:102F700069460548FFF75AFD08B1FDF740FE0248D3
:102F8000FFF724FD0AB010BDEC0300200C4810B57B
:102F90000A4901604FF4E1314160002181600C2257
:102FA000C160C0E904128161C161FFF72FFE0028F2
:102FB00003D0BDE81040FDF722BE10BD003801402F
:102FC00034040020FEE7FEE730B5254CC0F30902CB
:102FD00002F58070A51F234B2280C0F309002880D2
:102FE00033F91000688033F912206280002900DA7A
:102FF000494241F2DB335943C1F30B31002800DA77
:1030000040424843C0F30F30A880002A00DA524201
:103010004A43C2F30F31A180FDF79AFD1249B5F979
:10302000025020221023081F002D02DD02600B60D9
:1030300004E001DA0A6000E002600360B4F90240D3
:103040004FF008034FF00402002C02DD03600A6019
:1030500030BD01DA0B6000E00360026030BD0000AB
:1030600036000020B845000814080140094900B5A1
:1030700000208880891D88800146FDF769FD06488B
:1030800020210160102101600821016004210160FC
:1030900000BD0000300000201408014010B500F011
:1030A0002FF805484188801DA0F10A0201801268AE
:1030B00032F81110418010BD2400002070B50F4877
:1030C000002404804480FFF715FEFFF7E7FF0B4A5A
:1030D0000120921DA2F10A011071096800204FF62B
:1030E000FF734FF4804500BF31F810609E4200D15D
:1030F0001471401C80B2A842F6D370BD2400002099
:103100002DE9FE434FF40340ADF804004FF40440B2
:103110000025244CADF806000DF104080DF1080956
:103120004FF47A77012600BFFFF7ECFD012302AAD6
:1031300001A91D480097FFF7E7FAFFF7DBFDFFF74E
:10314000E1FD012309F1020208F10201164800978E
:10315000FFF7DAFAFFF7CEFDBDF80800BDF80A2048
:10316000C0B260F31F2200212280084606FA00F355
:103170001A4201D0491CC9B2401CC0B21028F5D374
:10318000C80707D000206D1CEDB26071032DCBD3B2
:10319000BDE8FE836671C2F38D00608002F002001C
:1031A0002071F5E724000020940300200148FFF778
:1031B00099B900009403002010B5406A0021C1872E
:1031C000C186FFF78DF910BD38B50B460092044655
:1031D0000022802100F008F8002804D0606D40F043
:1031E00020006065032038BD2DE9F8431E46914656
:1031F00088460446089DFEF775FD401B351AFEF70C
:1032000071FD074625480068C0F3CB30684338E0BD
:10321000701C37D0FEF766FDC01BA84203D215B163
:10322000009860B32CE02068416821F0E001416023
:103230006068B0F5827F0BD1A068B0F5004F02D076
:10324000B0F5806F04D12068016821F04001016071
:10325000A06AB0F5005F09D12068016821F400512F
:1032600001602068016841F400510160012084F888
:103270005100002084F850000320BDE8F8830025A9
:10328000401E00902068816838EA010004D00021C7
:103290004945BDD10020F0E70121F9E718000020E1
:1032A000012000F095FAFBE710B50446FEF710FC8C
:1032B0002068E06010BD00002DE9F04385B00546B0
:1032C000FEF706FC002427464FF001084FF0FF39B7
:1032D0000D4E11E00097286804A900EB8420CDE989
:1032E00002086846FEF756FB4846FDF7EBFC3069DE
:1032F00020F002003061641CA868A042EAD805B042
:10330000BDE8F043FEF79ABB00200240FEF796BBF3
:103310002DE9F0410F460446C16800681646814217
:1033200016D3626801EB46011044814210D8002593
:103330000CE000BF37F8152000230120E168FEF7FC
:1033400087FB10B9E068801CE0606D1CB542F1D3CA
:10335000BDE8F08110B5FEF7CBFC00F0FBFE0128C4
:1033600003D0BDE8104000F079BE10BD30B593B079
:1033700028216846FCF7B9FF14210AA8FCF7B5FF1D
:10338000002501200F9510951195010412958DE8E7
:10339000230004900005CDE9081002240794684634
:1033A000FEF70EFF08B172B6FEE70AA90F2081E80A
:1033B00031004FF48060CDE90D0502210AA8FEF727
:1033C0000FFE08B172B6FEE74FF4004011900F9463
:1033D0000FA8FEF78FFD002801D072B6FEE713B0EC
:1033E00030BD7047F0B50268164B174C174D4FF0C3
:1033F0008047984205D0B84203D0A04201D0A842ED
:1034000003D122F070064A683243984205D0B84290
:1034100003D0A04201D0A84203D122F44074CA686C
:1034200022434C6922F08002224302608A68C26211
:103430000A688262984201D10969016301214161F0
:10344000F0BD0000002C01400004004000080040D6
:1034500010B501F01F030121046A99408C430462F6
:10346000016A9A401143016210BD000030B5026A42
:1034700022F001020262026A4368846924F0730543
:103480000C682C4322F002058A682A430A4DA842A0
:103490000BD122F00805CA6823F440732A434D6912
:1034A00022F004021D438B692B4343608461496809
:1034B0004163026230BD0000002C014030B5026A59
:1034C00022F010020262026A436884690D6824F4E3
:1034D000E64444EA05248D6822F0200242EA0512FF
:1034E0000B4DA8420ED1CD6822F0800242EA0512AF
:1034F0004D6923F4406343EA85038D6922F040025D
:1035000043EA85034360846149688163026230BD98
:10351000002C014030B5026A22F480720262036A14
:103520004268C46923F4007324F073050C682C43CB
:103530008D6843EA05230C4DA8420ED1CD6823F4D3
:10354000006343EA05234D6922F4405242EA051222
:103550008D6923F4806342EA05124260C4614968C0
:10356000C163036230BD0000002C014030B5026A27
:1035700022F480520262046A4268C3690D6823F42F
:10358000E64343EA05238D6824F4005444EA0534F5
:10359000064DA84204D14D6922F4804242EA8512C8
:1035A0004260C36149680164046230BD002C01407F
:1035B00070B5044600680169E26821F44051114386
:1035C00001612169A0680843616908432168CA68EC
:1035D00041F20C639A430243CA6020684169A269C0
:1035E00021F44071114341611E492068884202D193
:1035F000FEF79CFD01E0FEF789FD00EBC00101EB49
:103600000012606864218000B2FBF0F3B3FBF1F3B9
:103610006FF018067343B2FBF0F5B2FBF0F605EB62
:103620008305322303EB0515B5FBF1F5B6FBF1F687
:1036300005F0F00505EB0615B2FBF0F6B2FBF0F075
:10364000B0FBF1F06FF01802504306EB800003EB83
:103650000010B0FBF1F0216800F00F0028448860F2
:1036600070BD0000003801400148FDF709BF0000AF
:103670006C030020FEE70907090E002804DB00F1B7
:10368000E02080F80014704700F00F0000F1E02007
:1036900080F8141D7047000010B50D4A0446012043
:1036A000C2E900100020906011462046FDF734FB6F
:1036B00008B1FDF7A4FA2046FDF716FD0A212046C1
:1036C000FDF774FC2046FDF7A5FB80B210BD00009D
:1036D0009804002000B58BB000200121CDE906013F
:1036E0000891009001900290039005900490694623
:1036F0000548FDF7D9FD0448FEF7CCF80221024841
:10370000FDF752FD0BB000BD6C030020FFF7C6FCB7
:10371000FCF7A2FFFDF74EF8012000F059F8F5E79D
:1037200070B500252C4611210848FFF7B5FF6D1C28
:10373000EDB20444C82DF6D3204600F0A9FE0146A0
:10374000034800F0E3FD0349086070BD0C0300204E
:10375000000099431C000020FEF7D2FAFFF706FE96
:10376000FFF772FBFFF712FCFFF7D4FAFFF7FAFA44
:10377000FFF7A8FBFFF7CCFBFFF71AFBFFF7D0FF23
:103780000E48FFF7FBF808210C48FFF7F1F90C2170
:103790000A48FFF7EDF9FFF791FCFDF797F9FDF700
:1037A00041F9FCF749FF064901200870FFF792FF35
:1037B000FFF720FB00F014F8FEE70000EC03002008
:1037C0006C0500200021842800D0C11C08467047E9
:1037D00010B5002800D1012000F042FB002010BDF0
:1037E00010B500F065FB002010BD30B585B0044673
:1037F0000D466169B4F90800002910D0A16971B1C2
:10380000FFF7E0FF6269A1690192029100902B46E7
:1038100022692168606800F06DFC049010E0FFF7F9
:10382000D1FF04A901910090208A2B4682B2216821
:10383000606800F029FC012802D005B0002030BDEE
:10384000049805B030BD00002DE9F04104460F4654
:10385000194E75693068001D00F038FA48B93068B3
:10386000012190F82C0001FA00F0B16921EA000072
:10387000B061B4F1FF3F07D137B13068BDE8F04126
:10388000011D0E4800F069BA2C4430684460AC4217
:1038900006D23068011DB068BDE8F04100F042BAC0
:1038A0003068011D706800F03DFA306B844200D230
:1038B0003463BDE8F08100003C000020AC0900202A
:1038C00070B5044600F056FA1C4D2869401C28616A
:1038D000286810B1E86938B10CE02C60286901282B
:1038E00008D100F0E7F805E02868E16AC06A88427C
:1038F00000D82C60E86A401CE862E06A0121AA69ED
:1039000081401143A9610E4900EB800001EB80006A
:10391000211D00F022FA00F04DFAE86900280CD0D1
:103920002868E16AC06A884207D206494FF0805091
:103930000860BFF34F8FBFF36F8F70BD3C00002056
:10394000D008002004ED00E070B50D4CE0680028C0
:1039500015D00C4E00F00EFAF068C568281D00F076
:10396000B5F92069401E2061E068401EE06000F06B
:1039700021FA284600F008F8E0680028EAD170BD76
:103980003C0000209809002010B5044694F851101E
:1039900000290BD0012911D0022914D0502080F326
:1039A0001188BFF34F8FBFF36F8FFEE7206B00F0DE
:1039B00017FA2046BDE8104000F012BA2046BDE8D4
:1039C000104000F00DBA10BD4FF44061104810F0E7
:1039D000070F06D0C01D20F007000D49411AC1F5A0
:1039E00040610C4A1060002353600144083921F003
:1039F0000701103A11604B600B600B1A43600160C5
:103A00004068906050604FF00040D0607047000008
:103A1000C009002088000020074E4FF08054074D59
:103A2000FFF792FF30680128FAD92C60BFF34F8F5F
:103A3000BFF36F8FF4E70000D008002004ED00E032
:103A40002DE9F0478146099E089D0A9C9A46521E20
:103A5000206B00EB820020F00708002700202318CD
:103A60000A5C83F834200A5C12B1401C1028F6D39B
:103A700084F84370072D00D30625E5626564A764CA
:103A8000201D00F04CF904F1180000F048F9246101
:103A9000C5F10700A0616462E76484F85070524683
:103AA0004946404600F000F92060002E00D0346006
:103AB000BDE8F08770B500240F4D04EB840005EBE2
:103AC000800000F021F9641C072CF6D30B4800F0AD
:103AD0001BF90B4800F018F90A4800F015F90A48DC
:103AE00000F012F9094800F00FF909480349416054
:103AF0001431816070BD0000D00800205C090020F6
:103B0000700900208409002098090020AC090020D9
:103B10003C00002010B4144900E011460A688242BB
:103B2000FBD34B6803EB010C844503D14068184478
:103B3000486008460C68D0F804C00CEB0003A342B0
:103B40000CD10A4B1B689A4206D05268624442600C
:103B50000A681268026002E0036000E002608142CD
:103B600000D0086010BC704788000020780000205A
:103B7000074948680068002805D04868C068C068E0
:103B80004068086370474FF0FF30086370470000DB
:103B90003C0000200A484068B0F1FF3F07D05020A9
:103BA00080F31188BFF34F8FBFF36F8FFEE7502074
:103BB00080F31188BFF34F8FBFF36F8FFEE70000D4
:103BC000900000202DE9F0410546002600F0B4F9F0
:103BD000334F386808B9FFF7F7FEF86805424ED151
:103BE0009DB1083515F0070F0FD005F00700C0F1A3
:103BF0000800054415F0070F07D0502080F3118806
:103C0000BFF34F8FBFF36F8FFEE7002D37D078687B
:103C1000854234D823490846046801E02146044619
:103C20006068A84202D220680028F7D13868844230
:103C300025D0086800F10806206808606068411B0C
:103C400010290FD9601910F0070F07D0502080F30A
:103C50001188BFF34F8FBFF36F8FFEE74160656040
:103C6000FFF758FF61687868401A7860BA68904238
:103C700000D2B860F868084360600020206000F05F
:103C8000DFFA16F0070F07D0502080F31188BFF33A
:103C90004F8FBFF36F8FFEE73046BDE8F081000025
:103CA0007800002088000020001F4FF08073036020
:103CB000001F21F001010160001F03490160143859
:103CC0000260203870470000953B00080169436896
:103CD00082689A60836842685A604A68824201D169
:103CE00082684A60002202610868401E0860086815
:103CF00070470000034B036003F15400086080200C
:103D000010607047B800002000F1080141604FF0DA
:103D1000FF328260C16001610021016070470021B3
:103D20000161704710B4D1F800C0BCF1FF3F02D070
:103D300000F1080202E0026904E01A4653681C68B8
:103D40006445FAD953684B6099608A605160086194
:103D50000168491C016010BC704742684A60936862
:103D60008B6093685960916008610168491C01602B
:103D700070470000502080F31188BFF34F8FBFF3CE
:103D80006F8F0A494868401C486001280CD10848D8
:103D9000006810F0FF0F07D0502080F31188BFF3A8
:103DA0004F8FBFF36F8FFEE7704700009000002039
:103DB00004ED00E009494868002806D0401E48602C
:103DC000002801D180F311887047502080F31188BA
:103DD000BFF34F8FBFF36F8FFEE70000900000200E
:103DE00070B5002827D0A0F10804134D6068E96879
:103DF000084207D1502080F31188BFF34F8FBFF3E3
:103E00006F8FFEE722683AB1502080F31188BFF32C
:103E10004F8FBFF36F8FFEE78843606000F08CF830
:103E200060686968084468602046FFF773FEBDE873
:103E3000704000F005BA70BD780000204FF0E0201F
:103E400000210161816105494FF47A720968B1FB73
:103E5000F2F1491E416107210161704718000020FD
:103E600010B502460020002A12D00F48806B38B1EE
:103E7000502080F31188BFF34F8FBFF36F8FFEE7A1
:103E800000F05AF800211046FFF7DEFC00F0D8F9E8
:103E9000002807D105494FF080500860BFF34F8FCD
:103EA000BFF36F8F10BD00003C00002004ED00E068
:103EB00010B586B000240594049403AA04A905A8AB
:103EC000FFF718FF059804990191029000230094D0
:103ED00015A11748039A00F00DF91649486308B177
:103EE000012000E0002001280AD0B0F1FF3F19D1E5
:103EF000502080F31188BFF34F8FBFF36F8FFEE721
:103F0000502080F31188BFF34F8FBFF36F8F4FF0B6
:103F1000FF3008630120C8614C6106B0BDE8104065
:103F200000F042B806B010BD49444C450000000006
:103F3000193A00083C0000200248816B491C81634B
:103F4000704700003C000020154A906B002802D00A
:103F5000012050627047002050629069B0FA80F0F2
:103F6000C0F11F000F4900EB800051F8203073B101
:103F700001EB800041684968416000F10803994203
:103F800001D1496841604068C068106070475020A6
:103F900080F31188BFF34F8FBFF36F8FFEE70000F0
:103FA0003C000020D008002000B583B028490878E4
:103FB0000290FF200870087801909DF804009DF899
:103FC000042000F0F000904207D0502080F31188C8
:103FD000BFF34F8FBFF36F8FFEE79DF804001D4BBB
:103FE00000F050001870072098609DF8040010F051
:103FF000800F0BD09868401E98609DF80400400028
:1040000001909DF8040010F0800FF3D19868032808
:1040100007D0502080F31188BFF34F8FBFF36F8F0D
:10402000FEE74FF440709860029808700A480168F3
:1040300041F470010160016841F070410160FFF7D7
:10404000FDFE00205860FCF7B1F803B0002000BD71
:1040500000E400E09000002020ED00E010B55020CA
:1040600080F31188BFF34F8FBFF36F8F00F080F89C
:1040700018B104494FF080500860002080F3118887
:1040800010BD000004ED00E02DE9F04F85B0814641
:104090000F9F0E9E8A4690469B464FEA8800FFF788
:1040A00091FD054628000AD05420FFF78BFD0446F9
:1040B0000CB1256304E02846FFF792FE00E00024DF
:1040C0009CB1002084F8510003905B464246514663
:1040D0000197009602944846FFF7B2FC2046FFF78E
:1040E000EFFB05B00120BDE8F08F05B04FF0FF30C9
:1040F000BDE8F08F70B586B00646DDF828C00C9C90
:104100000B98002816D0ECB15425049520630220AA
:1041100084F85100002005AD0390CDF800C0019552
:1041200002943046FFF78CFC2046FFF7C9FB059848
:1041300006B070BD502080F31188BFF34F8FBFF3DE
:104140006F8FFEE7502080F31188BFF34F8FBFF3CE
:104150006F8FFEE70548C169002903D0806B18B155
:104160000020704701207047022070473C0000206B
:104170002DE9F0470026304FB86B002808D0386A88
:10418000401C3862786A00B101263046BDE8F087ED
:104190007869451C7D619DB97868006838B1502008
:1041A00080F31188BFF34F8FBFF36F8FFEE77868FE
:1041B000B9687960B860B86A401CB862FFF7D8FC8B
:1041C000386BDFF8788085420FD34FF001097868AB
:1041D000006838B17868C068C468606885420ED2EB
:1041E000386302E04FF0FF3038633868C06A00EB94
:1041F000800058F820000128C4D90126C2E7201DFC
:10420000FFF764FDA06A18B104F11800FFF75EFD26
:10421000E16ABA6909FA01F01043B86101EB810063
:1042200008EB8000211DFFF798FDE06A3968C96A34
:104230008842CCD30126CAE73C000020D0080020E9
:104240002DE9F0470024A0462D4DA86B002807D08B
:10425000FFF790FDA86B401EA863A86B40B149E032
:10426000502080F31188BFF34F8FBFF36F8FFEE7AD
:10427000286900283ED0234F3868012600B3A7F1F3
:10428000B409F868C46804F11800FFF71FFD201D89
:10429000FFF71CFDE06AAA6906FA00F11143A96163
:1042A00000EB800009EB8000211DFFF756FDE06A5E
:1042B0002968C96A884200D36E6238680028E0D154
:1042C0000CB1FFF755FC2C6A44B1FFF751FF00B168
:1042D0006E62641E002CF8D100202862686A48B122
:1042E0004FF0010808494FF080500860BFF34F8F2E
:1042F000BFF36F8FFFF75EFD4046BDE8F08700001B
:104300003C0000208409002004ED00E04FF47F0C05
:104310001CEAD0121EBF1CEAD11392EA0C0F93EADA
:104320000C0F00F0858090EA010F48BF42F48072C4
:1043300040F4000C41F400002CF07F4120F07F405D
:1043400000B58142A2EB03020FF2081CACEB504E09
:10435000C0F100009EF800E04FEA4E0E00FB0EFC9C
:1043600038BF49004FEA2C1C02F5FA020CFB0EF391
:104370004FEACE1E4FEA112C4FEAC1210EEB635ECD
:1043800042EB22420EFB0CFC4FEA1C5300FB0311D4
:104390004FEA112C4FEA01310EFB0CFC4FEADC4CCA
:1043A00000FB0C11C14228BF09184CEB03335DF828
:1043B00004EB10EB410143EBC250B2F57C0F38BF68
:1043C000704729D512F0F00F1CBF00F1C04000F07B
:1043D00000407047008182838485868788898B8C22
:1043E0008D8E8F919293959697999A9C9D9FA0A25E
:1043F000A3A5A7A8AAACAEB0B2B3B5B7B9BCBEC0AE
:10440000C2C5C7C9CCCED1D4D7D9DCDFE2E6E9EC4E
:10441000F0F3F7FAFE0000004FEA400C0CF1807C4C
:10442000BCF17E4F28BF7047B0F1C04000F089B8A2
:1044300090EA010F0CEAD11348BF42F48072624542
:1044400038BF634507D213F47F0F16D080EA01000E
:1044500000F00040704710B500F02DF8097EFC3EDA
:1044600000F005B880EA010000F00040704780EAE3
:10447000010000F0004000F064B812F47F0F04BFA8
:104480000248704780EA010000F05BB80000C07F7E
:10449000B0FA80F310FA03F2C3F19D030AD0D905F4
:1044A00001EB1220530638BF704700F1010008BF2E
:1044B00020F0010070470EF1020E2EF0030E5EF8A0
:1044C000044B244204D44FEA4102B2F17F4F11D889
:1044D0004FEA4003B3F17F4F0CD80ED14FEAD07CA6
:1044E000B2F17F4F0CEB4C0C0CF1020C08BF4CEB03
:1044F000D17C04E04FF0080C01E04FEAD17C0CEBDA
:104500004C0324FA03F404F00704B4F1040C06D2BB
:104510000EEB840CBDE810404CF0010C6047DFE866
:104520000CF0070802024FF00040A0F5800010BD1B
:104530000846420018BFD2F1807288BF00F00040E8
:1045400010BDFF2141EAD050C0057047CC4D000896
:10455000A132000800000000000000008000000000
:104560000000000000000000D84D00080D370008D2
:104570000000000001000000000100000000000039
:1045800000000000BC4D0008F30B00080000000014
:10459000000000008000000000000000000000009B
:1045A00000000000000000000102030406070809E3
:1045B00000000000010203040000190032004B005B
:1045C00065007E009700B000C900E200FB00140106
:1045D0002D0146015F0178019101AA01C301DC01AF
:1045E000F5010E0227024002590272028B02A30259
:1045F000BC02D502EE0206031F0338035003690311
:1046000081039A03B203CB03E303FC0314042C04D9
:1046100044045D0475048D04A504BD04D504ED04B3
:1046200005051D0534054C0564057C059305AB05A2
:10463000C205DA05F10508061F0637064E066506AF
:104640007C069306AA06C106D706EE0605071B07D9
:10465000320748075E0775078B07A107B707CD0725
:10466000E307F9070E0824083A084F0865087A0896
:104670008F08A508BA08CF08E408F8080D09220930
:1046800037094B095F09740988099C09B009C409F5
:10469000D809EC09FF09130A260A3A0A4D0A600AEA
:1046A000730A860A990AAC0ABF0AD10AE40AF60A12
:1046B000080B1B0B2D0B3E0B500B620B740B850B69
:1046C000970BA80BB90BCA0BDB0BEC0BFC0B0D0CFF
:1046D0001E0C2E0C3E0C4E0C5E0C6E0C7E0C8E0CCA
:1046E0009D0CAC0CBC0CCB0CDA0CE90CF80C060DD8
:1046F000150D230D320D400D4E0D5C0D690D770D1E
:10470000850D920D9F0DAC0DB90DC60DD30DDF0DAE
:10471000EC0DF80D040E100E1C0E280E340E3F0E7C
:104720004B0E560E610E6C0E770E810E8C0E960E91
:10473000A10EAB0EB50EBF0EC80ED20EDB0EE40EF0
:10474000EE0EF70EFF0E080F110F190F210F290F94
:10475000310F390F410F480F500F570F5E0F650F84
:104760006C0F720F790F7F0F850F8B0F910F970FC3
:104770009C0FA20FA70FAC0FB10FB60FBB0FBF0F4F
:10478000C40FC80FCC0FD00FD40FD70FDB0FDE0F25
:10479000E10FE40FE70FEA0FEC0FEF0FF10FF30F4C
:1047A000F50FF70FF80FFA0FFB0FFC0FFD0FFE0FC1
:1047B000FF0FFF0F00100010001000100010FF0F7F
:1047C000FF0FFE0FFD0FFC0FFB0FFA0FF80FF70F97
:1047D000F50FF30FF10FEF0FEC0FEA0FE70FE40FF8
:1047E000E10FDE0FDB0FD70FD40FD00FCC0FC80FA8
:1047F000C40FBF0FBB0FB60FB10FAC0FA70FA20FA7
:104800009C0F970F910F8B0F850F7F0F790F720FF2
:104810006C0F650F5E0F570F500F480F410F390F88
:10482000310F290F210F190F110F080FFF0EF70E6F
:10483000EE0EE40EDB0ED20EC80EBF0EB50EAB0EA2
:10484000A10E960E8C0E810E770E6C0E610E560E1A
:104850004B0E3F0E340E280E1C0E100E040EF80DDB
:10486000EC0DDF0DD30DC60DB90DAC0D9F0D920DE6
:10487000850D770D690D5C0D4E0D400D320D230D2C
:10488000150D060DF80CE90CDA0CCB0CBC0CAC0CBD
:104890009D0C8E0C7E0C6E0C5E0C4E0C3E0C2E0C89
:1048A0001E0C0D0CFC0BEC0BDB0BCA0BB90BA80B95
:1048B000970B850B740B620B500B3E0B2D0B1B0BD8
:1048C000080BF60AE40AD10ABF0AAC0A990A860A5A
:1048D000730A600A4D0A3A0A260A130AFF09EC090C
:1048E000D809C409B0099C09880974095F094B09F2
:1048F000370922090D09F808E408CF08BA08A50805
:104900008F087A0865084F083A0824080E08F90746
:10491000E307CD07B707A1078B0775075E074807B1
:1049200032071B070507EE06D706C106AA0693063F
:104930007C0665064E0637061F060806F105DA05F1
:10494000C205AB0593057C0564054C0534051D05C2
:104950000505ED04D504BD04A5048D0475045D04AE
:1049600044042C041404FC03E303CB03B2039A03B2
:1049700081036903500338031F030603EE02D502C7
:10498000BC02A3028B0272025902400227020E02ED
:10499000F501DC01C301AA01910178015F01460123
:1049A0002D011401FB00E200C900B00097007E0059
:1049B00065004B00320019000000E7FFCEFFB5FF95
:1049C0009BFF82FF69FF50FF37FF1EFF05FFECFED4
:1049D000D3FEBAFEA1FE88FE6FFE56FE3DFE24FE0B
:1049E0000BFEF2FDD9FDC0FDA7FD8EFD75FD5DFD41
:1049F00044FD2BFD12FDFAFCE1FCC8FCB0FC97FC69
:104A00007FFC66FC4EFC35FC1DFC04FCECFBD4FB7F
:104A1000BCFBA3FB8BFB73FB5BFB43FB2BFB13FB85
:104A2000FBFAE3FACCFAB4FA9CFA84FA6DFA55FA76
:104A30003EFA26FA0FFAF8F9E1F9C9F9B2F99BF949
:104A400084F96DF956F93FF929F912F9FBF8E5F8FF
:104A5000CEF8B8F8A2F88BF875F85FF849F833F893
:104A60001DF807F8F2F7DCF7C6F7B1F79BF786F702
:104A700071F75BF746F731F71CF708F7F3F6DEF648
:104A8000C9F6B5F6A1F68CF678F664F650F63CF663
:104A900028F614F601F6EDF5DAF5C6F5B3F5A0F54E
:104AA0008DF57AF567F554F541F52FF51CF50AF506
:104AB000F8F4E5F4D3F4C2F4B0F49EF48CF47BF48F
:104AC00069F458F447F436F425F414F404F4F3F3D9
:104AD000E2F3D2F3C2F3B2F3A2F392F382F372F3EE
:104AE00063F354F344F335F326F317F308F3FAF2C0
:104AF000EBF2DDF2CEF2C0F2B2F2A4F297F289F25A
:104B00007BF26EF261F254F247F23AF22DF221F2A8
:104B100014F208F2FCF1F0F1E4F1D8F1CCF1C1F1BA
:104B2000B5F1AAF19FF194F189F17FF174F16AF185
:104B30005FF155F14BF141F138F12EF125F11CF106
:104B400012F109F101F1F8F0EFF0E7F0DFF0D7F042
:104B5000CFF0C7F0BFF0B8F0B0F0A9F0A2F09BF032
:104B600094F08EF087F081F07BF075F06FF069F0D3
:104B700064F05EF059F054F04FF04AF045F041F027
:104B80003CF038F034F030F02CF029F025F022F031
:104B90001FF01CF019F016F014F011F00FF00DF0EA
:104BA0000BF009F008F006F005F004F003F002F055
:104BB00001F001F000F000F000F000F000F001F072
:104BC00001F002F003F004F005F006F008F009F03F
:104BD0000BF00DF00FF011F014F016F019F01CF0BE
:104BE0001FF022F025F029F02CF030F034F038F0EE
:104BF0003CF041F045F04AF04FF054F059F05EF0CF
:104C000064F069F06FF075F07BF081F087F08EF062
:104C100094F09BF0A2F0A9F0B0F0B8F0BFF0C7F0AC
:104C2000CFF0D7F0DFF0E7F0EFF0F8F001F109F1A5
:104C300012F11CF125F12EF138F141F14BF155F152
:104C40005FF16AF174F17FF189F194F19FF1AAF1BA
:104C5000B5F1C1F1CCF1D8F1E4F1F0F1FCF108F2D9
:104C600014F221F22DF23AF247F254F261F26EF2AE
:104C70007BF289F297F2A4F2B2F2C0F2CEF2DDF248
:104C8000EBF2FAF208F317F326F335F344F354F397
:104C900063F372F382F392F3A2F3B2F3C2F3D2F3AB
:104CA000E2F3F3F304F414F425F436F447F458F47F
:104CB00069F47BF48CF49EF4B0F4C2F4D3F4E5F41C
:104CC000F8F40AF51CF52FF541F554F567F57AF57A
:104CD0008DF5A0F5B3F5C6F5DAF5EDF501F614F6A8
:104CE00028F63CF650F664F678F68CF6A1F6B5F6A2
:104CF000C9F6DEF6F3F608F71CF731F746F75BF76F
:104D000071F786F79BF7B1F7C6F7DCF7F2F707F80C
:104D10001DF833F849F85FF875F88BF8A2F8B8F881
:104D2000CEF8E5F8FBF812F929F93FF956F96DF9D3
:104D300084F99BF9B2F9C9F9E1F9F8F90FFA26FA01
:104D40003EFA55FA6DFA84FA9CFAB4FACCFAE3FA10
:104D5000FBFA13FB2BFB43FB5BFB73FB8BFBA3FB04
:104D6000BCFBD4FBECFB04FC1DFC35FC4EFC66FCE0
:104D70007FFC97FCB0FCC8FCE1FCFAFC12FD2BFDAB
:104D800044FD5DFD75FD8EFDA7FDC0FDD9FDF2FD65
:104D90000BFE24FE3DFE56FE6FFE88FEA1FEBAFE0F
:104DA000D3FEECFE05FF1EFF37FF50FF69FF82FFB9
:104DB0009BFFB5FFCEFFE7FF00000000656E636F4D
:104DC0006465725F63616C69000000006465666120
:104DD000756C745461736B0063757272656E745F89
:104DE000636F6E00044E000800000020B800000051
:104DF00028010008BC4E0008B8000020C81B0000B5
:104E00004401000800000000000000000000000055
:104E10000100000010000000000000000024F40069
:104E20006740533A007C01080000000000000000C9
:104E30000000000000000000000000000000000072
:104E40000000000000000000000000000000000062
:104E50000000000000000000000000000000000052
:104E60000000000000000000000000000000000042
:104E70000000000000000000000000000000000032
:104E80000000000000000000000000000000000022
:104E90000000000000000000AAAAAAAA000000006A
:104EA000007C0108008000002000000000000000DD
:0C4EB000000000000000000000000000F6
:04000005080000ED02
:00000001FF
